:0D0076007591FFE4F5927590FF75B0FF22C3
:10003100EF1F70011E144E6013E4FCFDC3ED9458D4
:0C004100EC940250EB0DBD00010C80F0AF
:01004D002290
:10006400758920759850758DF3758BF3758780D2DB
:020074008E22DA
:08008F008F993099FDC29922FE
:10000300E4FB530707F5C500EF42C50043C5807FF6
:10001300017E0012003143C508EB7007E5C554109B
:0D002300FB80F653C5E7AFC612008FAFC6D5
:0100300022AD
:03004E0012006439
:100051007F327E00120031E4FF1200038F0912008B
:010061008F0F
:0200620080ED2F
:0300000002008378
:0C008300787FE4F6D8FD75810902004E7C
:00000001FF
